{
  "_format": "hh-sol-artifact-1",
  "contractName": "REITManagement",
  "sourceName": "contracts/reitcontract.sol",
  "abi": [
    {
      "inputs": [],
      "stateMutability": "nonpayable",
      "type": "constructor"
    },
    {
      "anonymous": false,
      "inputs": [
        {
          "indexed": false,
          "internalType": "uint256",
          "name": "propertyId",
          "type": "uint256"
        },
        {
          "indexed": false,
          "internalType": "address",
          "name": "investor",
          "type": "address"
        },
        {
          "indexed": false,
          "internalType": "uint256",
          "name": "amount",
          "type": "uint256"
        }
      ],
      "name": "Invested",
      "type": "event"
    },
    {
      "anonymous": false,
      "inputs": [
        {
          "indexed": false,
          "internalType": "uint256",
          "name": "propertyId",
          "type": "uint256"
        },
        {
          "indexed": false,
          "internalType": "address",
          "name": "owner",
          "type": "address"
        },
        {
          "indexed": false,
          "internalType": "uint256",
          "name": "value",
          "type": "uint256"
        },
        {
          "indexed": false,
          "internalType": "string",
          "name": "ipfsHash",
          "type": "string"
        }
      ],
      "name": "PropertyListed",
      "type": "event"
    },
    {
      "anonymous": false,
      "inputs": [
        {
          "indexed": false,
          "internalType": "uint256",
          "name": "propertyId",
          "type": "uint256"
        },
        {
          "indexed": false,
          "internalType": "address",
          "name": "tenant",
          "type": "address"
        },
        {
          "indexed": false,
          "internalType": "uint256",
          "name": "amount",
          "type": "uint256"
        },
        {
          "indexed": false,
          "internalType": "uint256",
          "name": "month",
          "type": "uint256"
        }
      ],
      "name": "RentPaid",
      "type": "event"
    },
    {
      "anonymous": false,
      "inputs": [
        {
          "indexed": false,
          "internalType": "uint256",
          "name": "propertyId",
          "type": "uint256"
        },
        {
          "indexed": false,
          "internalType": "uint256",
          "name": "rent",
          "type": "uint256"
        }
      ],
      "name": "RentSet",
      "type": "event"
    },
    {
      "anonymous": false,
      "inputs": [
        {
          "indexed": false,
          "internalType": "address",
          "name": "stakeholder",
          "type": "address"
        }
      ],
      "name": "StakeholderAdded",
      "type": "event"
    },
    {
      "anonymous": false,
      "inputs": [
        {
          "indexed": false,
          "internalType": "address",
          "name": "stakeholder",
          "type": "address"
        }
      ],
      "name": "StakeholderBanned",
      "type": "event"
    },
    {
      "anonymous": false,
      "inputs": [
        {
          "indexed": false,
          "internalType": "uint256",
          "name": "propertyId",
          "type": "uint256"
        },
        {
          "indexed": false,
          "internalType": "address",
          "name": "tenant",
          "type": "address"
        },
        {
          "indexed": false,
          "internalType": "uint256",
          "name": "duration",
          "type": "uint256"
        }
      ],
      "name": "TenantAdded",
      "type": "event"
    },
    {
      "inputs": [
        {
          "internalType": "address",
          "name": "_stakeholder",
          "type": "address"
        }
      ],
      "name": "addStakeholder",
      "outputs": [],
      "stateMutability": "nonpayable",
      "type": "function"
    },
    {
      "inputs": [
        {
          "internalType": "uint256",
          "name": "_propertyId",
          "type": "uint256"
        },
        {
          "internalType": "address",
          "name": "_tenant",
          "type": "address"
        },
        {
          "internalType": "uint256",
          "name": "_duration",
          "type": "uint256"
        }
      ],
      "name": "addTenant",
      "outputs": [],
      "stateMutability": "nonpayable",
      "type": "function"
    },
    {
      "inputs": [
        {
          "internalType": "address",
          "name": "_stakeholder",
          "type": "address"
        }
      ],
      "name": "banStakeholder",
      "outputs": [],
      "stateMutability": "nonpayable",
      "type": "function"
    },
    {
      "inputs": [
        {
          "internalType": "uint256",
          "name": "_propertyId",
          "type": "uint256"
        },
        {
          "internalType": "uint256",
          "name": "_amount",
          "type": "uint256"
        }
      ],
      "name": "distributeRent",
      "outputs": [],
      "stateMutability": "nonpayable",
      "type": "function"
    },
    {
      "inputs": [
        {
          "internalType": "address",
          "name": "_investor",
          "type": "address"
        }
      ],
      "name": "getInvestedProperties",
      "outputs": [
        {
          "components": [
            {
              "internalType": "uint256",
              "name": "id",
              "type": "uint256"
            },
            {
              "internalType": "string",
              "name": "description",
              "type": "string"
            },
            {
              "internalType": "uint256",
              "name": "value",
              "type": "uint256"
            },
            {
              "internalType": "string",
              "name": "ipfsHash",
              "type": "string"
            }
          ],
          "internalType": "struct REITManagement.PropertyDetail[]",
          "name": "",
          "type": "tuple[]"
        }
      ],
      "stateMutability": "view",
      "type": "function"
    },
    {
      "inputs": [],
      "name": "getPropertyCount",
      "outputs": [
        {
          "internalType": "uint256",
          "name": "",
          "type": "uint256"
        }
      ],
      "stateMutability": "view",
      "type": "function"
    },
    {
      "inputs": [
        {
          "internalType": "uint256",
          "name": "_propertyId",
          "type": "uint256"
        }
      ],
      "name": "getPropertyDetails",
      "outputs": [
        {
          "internalType": "address",
          "name": "propertyOwner",
          "type": "address"
        },
        {
          "internalType": "string",
          "name": "description",
          "type": "string"
        },
        {
          "internalType": "uint256",
          "name": "propertyValue",
          "type": "uint256"
        },
        {
          "internalType": "uint256",
          "name": "totalInvested",
          "type": "uint256"
        },
        {
          "internalType": "uint256",
          "name": "rent",
          "type": "uint256"
        },
        {
          "internalType": "string",
          "name": "ipfsHash",
          "type": "string"
        }
      ],
      "stateMutability": "view",
      "type": "function"
    },
    {
      "inputs": [
        {
          "internalType": "uint256",
          "name": "_propertyId",
          "type": "uint256"
        },
        {
          "internalType": "address",
          "name": "_tenant",
          "type": "address"
        }
      ],
      "name": "getTenantStatus",
      "outputs": [
        {
          "internalType": "bool[]",
          "name": "",
          "type": "bool[]"
        }
      ],
      "stateMutability": "view",
      "type": "function"
    },
    {
      "inputs": [
        {
          "internalType": "uint256",
          "name": "_propertyId",
          "type": "uint256"
        },
        {
          "internalType": "uint256",
          "name": "_investmentAmount",
          "type": "uint256"
        }
      ],
      "name": "investIntoProperty",
      "outputs": [],
      "stateMutability": "nonpayable",
      "type": "function"
    },
    {
      "inputs": [
        {
          "internalType": "uint256",
          "name": "_propertyId",
          "type": "uint256"
        },
        {
          "internalType": "address",
          "name": "_tenant",
          "type": "address"
        },
        {
          "internalType": "uint256",
          "name": "_month",
          "type": "uint256"
        }
      ],
      "name": "isRentPaid",
      "outputs": [
        {
          "internalType": "bool",
          "name": "",
          "type": "bool"
        }
      ],
      "stateMutability": "view",
      "type": "function"
    },
    {
      "inputs": [
        {
          "internalType": "string",
          "name": "_description",
          "type": "string"
        },
        {
          "internalType": "uint256",
          "name": "_value",
          "type": "uint256"
        },
        {
          "internalType": "string",
          "name": "_ipfsHash",
          "type": "string"
        }
      ],
      "name": "listProperty",
      "outputs": [],
      "stateMutability": "nonpayable",
      "type": "function"
    },
    {
      "inputs": [],
      "name": "owner",
      "outputs": [
        {
          "internalType": "address",
          "name": "",
          "type": "address"
        }
      ],
      "stateMutability": "view",
      "type": "function"
    },
    {
      "inputs": [
        {
          "internalType": "uint256",
          "name": "_propertyId",
          "type": "uint256"
        },
        {
          "internalType": "uint256",
          "name": "_month",
          "type": "uint256"
        },
        {
          "internalType": "uint256",
          "name": "_amount",
          "type": "uint256"
        }
      ],
      "name": "payRent",
      "outputs": [],
      "stateMutability": "nonpayable",
      "type": "function"
    },
    {
      "inputs": [
        {
          "internalType": "uint256",
          "name": "",
          "type": "uint256"
        }
      ],
      "name": "properties",
      "outputs": [
        {
          "internalType": "address payable",
          "name": "propertyOwner",
          "type": "address"
        },
        {
          "internalType": "string",
          "name": "description",
          "type": "string"
        },
        {
          "internalType": "uint256",
          "name": "propertyValue",
          "type": "uint256"
        },
        {
          "internalType": "uint256",
          "name": "totalInvested",
          "type": "uint256"
        },
        {
          "internalType": "uint256",
          "name": "rent",
          "type": "uint256"
        },
        {
          "internalType": "string",
          "name": "ipfsHash",
          "type": "string"
        }
      ],
      "stateMutability": "view",
      "type": "function"
    },
    {
      "inputs": [],
      "name": "propertyCount",
      "outputs": [
        {
          "internalType": "uint256",
          "name": "",
          "type": "uint256"
        }
      ],
      "stateMutability": "view",
      "type": "function"
    },
    {
      "inputs": [
        {
          "internalType": "uint256",
          "name": "_propertyId",
          "type": "uint256"
        },
        {
          "internalType": "uint256",
          "name": "_rent",
          "type": "uint256"
        }
      ],
      "name": "setRent",
      "outputs": [],
      "stateMutability": "nonpayable",
      "type": "function"
    },
    {
      "inputs": [
        {
          "internalType": "uint256",
          "name": "_taxRate",
          "type": "uint256"
        }
      ],
      "name": "setTaxRate",
      "outputs": [],
      "stateMutability": "nonpayable",
      "type": "function"
    },
    {
      "inputs": [
        {
          "internalType": "address",
          "name": "",
          "type": "address"
        }
      ],
      "name": "stakeholders",
      "outputs": [
        {
          "internalType": "bool",
          "name": "",
          "type": "bool"
        }
      ],
      "stateMutability": "view",
      "type": "function"
    },
    {
      "inputs": [],
      "name": "taxRate",
      "outputs": [
        {
          "internalType": "uint256",
          "name": "",
          "type": "uint256"
        }
      ],
      "stateMutability": "view",
      "type": "function"
    }
  ],
  "bytecode": "0x60806040526000600155600560025534801561001a57600080fd5b50600080546001600160a01b031916331790556119328061003c6000396000f3fe608060405234801561001057600080fd5b50600436106101215760003560e01c80639a5c57cd116100ad578063c361a33511610071578063c361a335146102ca578063c6d69a30146102d3578063c8469f85146102e6578063e5c42fd1146102f9578063f7b108081461030c57600080fd5b80639a5c57cd1461024e578063a55c234314610261578063af015ff314610274578063b73f9e3014610294578063c07cfca9146102a757600080fd5b806357e74ed0116100f457806357e74ed0146101d55780637326b901146101f5578063771a3a1d146102075780638da5cb5b146102105780639848e1491461023b57600080fd5b8063126dbe431461012657806354dde14f146101545780635759fb3c14610169578063579772461461017c575b600080fd5b610139610134366004611312565b61031f565b60405161014b96959493929190611371565b60405180910390f35b610167610162366004611469565b61049e565b005b6101676101773660046114f2565b6105b6565b6101c561018a366004611514565b60008381526003602090815260408083206001600160a01b0386168452600701825280832084845260010190915290205460ff169392505050565b604051901515815260200161014b565b6101e86101e3366004611549565b610638565b60405161014b9190611575565b6001545b60405190815260200161014b565b6101f960025481565b600054610223906001600160a01b031681565b6040516001600160a01b03909116815260200161014b565b6101676102493660046115bb565b610721565b61016761025c3660046115bb565b6107cf565b61016761026f366004611514565b610a46565b6102876102823660046114f2565b610b57565b60405161014b91906115dd565b6101676102a2366004611679565b610e4c565b6101c56102b53660046114f2565b60046020526000908152604090205460ff1681565b6101f960015481565b6101676102e1366004611312565b610f7e565b6101676102f43660046115bb565b610fad565b6101676103073660046114f2565b611145565b61013961031a366004611312565b6111c3565b600060606000806000606060006003600089815260200190815260200160002090508060000160009054906101000a90046001600160a01b0316816001018260020154836003015484600401548560050184805461037c906116a5565b80601f01602080910402602001604051908101604052809291908181526020018280546103a8906116a5565b80156103f55780601f106103ca576101008083540402835291602001916103f5565b820191906000526020600020905b8154815290600101906020018083116103d857829003601f168201915b50505050509450808054610408906116a5565b80601f0160208091040260200160405190810160405280929190818152602001828054610434906116a5565b80156104815780601f1061045657610100808354040283529160200191610481565b820191906000526020600020905b81548152906001019060200180831161046457829003601f168201915b505050505090509650965096509650965096505091939550919395565b3360009081526004602052604090205460ff166105145760405162461bcd60e51b815260206004820152602960248201527f4f6e6c79207374616b65686f6c646572732063616e20706572666f726d20746860448201526834b99030b1ba34b7b760b91b60648201526084015b60405180910390fd5b600180600082825461052691906116f5565b909155505060018054600090815260036020526040902080546001600160a01b0319163317815590810161055a8582611757565b5060028101839055600581016105708382611757565b507f0770dfc6b6ddb0c8cea76fc6a9faa432a8f4a1a572b7b9ce0ebaf957b1098b376001543385856040516105a89493929190611817565b60405180910390a150505050565b6000546001600160a01b031633146105e05760405162461bcd60e51b815260040161050b9061184e565b6001600160a01b038116600081815260046020908152604091829020805460ff1916905590519182527f139174d7664d1e2d4a04ce5288438d2ae3296b6707c114203b10d704d3d9fe7491015b60405180910390a150565b60008281526003602090815260408083206001600160a01b0385168452600701909152812080546060929067ffffffffffffffff81111561067b5761067b6113c6565b6040519080825280602002602001820160405280156106a4578160200160208202803683370190505b50905060005b8254811015610716578260010160008260016106c691906116f5565b815260200190815260200160002060009054906101000a900460ff168282815181106106f4576106f4611894565b911515602092830291909101909101528061070e816118aa565b9150506106aa565b509150505b92915050565b60008281526003602052604090205482906001600160a01b031633146107825760405162461bcd60e51b81526020600482015260166024820152752737ba103a343290383937b832b93a3c9037bbb732b960511b604482015260640161050b565b600083815260036020908152604091829020600481018590558251868152918201859052917ffebca5cd75c3c108508a3905d2b6ebf3d468caa2b6f2108293e5ad0efe5806d291016105a8565b60008281526003602081905260409091209081015461083e5760405162461bcd60e51b815260206004820152602560248201527f4e6f20696e766573746d656e7473206d61646520666f7220746869732070726f604482015264706572747960d81b606482015260840161050b565b478211156108995760405162461bcd60e51b815260206004820152602260248201527f496e73756666696369656e742062616c616e636520746f206469737472696275604482015261746560f01b606482015260840161050b565b6000805b60088301548110156109285760008360080182815481106108c0576108c0611894565b60009182526020808320909101546001600160a01b0316808352600687019091526040822054600387015491935091906108fa83896118c3565b61090491906118da565b905061091081866116f5565b94505050508080610920906118aa565b91505061089d565b50808310156109855760405162461bcd60e51b8152602060048201526024808201527f52656e7420646973747269627574696f6e20657863656564732074686520616d6044820152631bdd5b9d60e21b606482015260840161050b565b60005b6008830154811015610a3f5760008360080182815481106109ab576109ab611894565b60009182526020808320909101546001600160a01b0316808352600687019091526040822054600387015491935091906109e583896118c3565b6109ef91906118da565b6040519091506001600160a01b0384169082156108fc029083906000818181858888f19350505050158015610a28573d6000803e3d6000fd5b505050508080610a37906118aa565b915050610988565b5050505050565b60008381526003602052604090205483906001600160a01b03163314610aa75760405162461bcd60e51b81526020600482015260166024820152752737ba103a343290383937b832b93a3c9037bbb732b960511b604482015260640161050b565b60008481526003602090815260408083206001600160a01b03871684526007810190925290912083815560015b848111610b055760008181526001830160205260409020805460ff1916905580610afd816118aa565b915050610ad4565b50604080518781526001600160a01b03871660208201529081018590527f142be6a79bdc5bf99f5b6a883d2e617c7f23754621b4b35b655c8c50f6d012069060600160405180910390a1505050505050565b6060600060015467ffffffffffffffff811115610b7657610b766113c6565b604051908082528060200260200182016040528015610b9f578160200160208202803683370190505b509050600060015b6001548111610c195760008181526003602090815260408083206001600160a01b038916845260060190915290205415610c075780838381518110610bee57610bee611894565b602090810291909101015281610c03816118aa565b9250505b80610c11816118aa565b915050610ba7565b5060008167ffffffffffffffff811115610c3557610c356113c6565b604051908082528060200260200182016040528015610c9157816020015b610c7e6040518060800160405280600081526020016060815260200160008152602001606081525090565b815260200190600190039081610c535790505b50905060005b82811015610e43576000848281518110610cb357610cb3611894565b6020026020010151905060006003600083815260200190815260200160002090506040518060800160405280838152602001826001018054610cf4906116a5565b80601f0160208091040260200160405190810160405280929190818152602001828054610d20906116a5565b8015610d6d5780601f10610d4257610100808354040283529160200191610d6d565b820191906000526020600020905b815481529060010190602001808311610d5057829003601f168201915b5050505050815260200182600201548152602001826005018054610d90906116a5565b80601f0160208091040260200160405190810160405280929190818152602001828054610dbc906116a5565b8015610e095780601f10610dde57610100808354040283529160200191610e09565b820191906000526020600020905b815481529060010190602001808311610dec57829003601f168201915b5050505050815250848481518110610e2357610e23611894565b602002602001018190525050508080610e3b906118aa565b915050610c97565b50949350505050565b60008381526003602090815260408083203384526007810190925290912054831115610eb35760405162461bcd60e51b815260206004820152601660248201527514995b9d08191d5c985d1a5bdb88195e18d95959195960521b604482015260640161050b565b60008211610f0e5760405162461bcd60e51b815260206004820152602260248201527f52656e7420616d6f756e74206d7573742062652067726561746572207468616e604482015261020360f41b606482015260840161050b565b33600081815260078301602090815260408083208784526001908101835292819020805460ff19169093179092558151878152908101929092528101839052606081018490527fe7b793c2d375aa5934e16873f97e647671990418e9fead32b65a4d41e8fb4d1d906080016105a8565b6000546001600160a01b03163314610fa85760405162461bcd60e51b815260040161050b9061184e565b600255565b6000828152600360205260409020816110195760405162461bcd60e51b815260206004820152602860248201527f496e766573746d656e7420616d6f756e74206d75737420626520677265617465604482015267072207468616e20360c41b606482015260840161050b565b60648160020154603261102c91906118c3565b61103691906118da565b8211156110965760405162461bcd60e51b815260206004820152602860248201527f496e766573746d656e74206578636565647320353025206f662070726f70657260448201526774792076616c756560c01b606482015260840161050b565b818160030160008282546110aa91906116f5565b9091555050336000908152600682016020526040812080548492906110d09084906116f5565b909155505060088101805460018101825560009182526020918290200180546001600160a01b03191633908117909155604080518681529283019190915281018390527f85e040b1b514c2f60555b8b931138cd55218c914496a8fcf822858bd240df4229060600160405180910390a1505050565b6000546001600160a01b0316331461116f5760405162461bcd60e51b815260040161050b9061184e565b6001600160a01b038116600081815260046020908152604091829020805460ff1916600117905590519182527fd9b802c55a7d0aabbc6554676754b5b4aabc8edf1d540b77812f81f6d4409ea1910161062d565b600360205260009081526040902080546001820180546001600160a01b0390921692916111ef906116a5565b80601f016020809104026020016040519081016040528092919081815260200182805461121b906116a5565b80156112685780601f1061123d57610100808354040283529160200191611268565b820191906000526020600020905b81548152906001019060200180831161124b57829003601f168201915b50505050509080600201549080600301549080600401549080600501805461128f906116a5565b80601f01602080910402602001604051908101604052809291908181526020018280546112bb906116a5565b80156113085780601f106112dd57610100808354040283529160200191611308565b820191906000526020600020905b8154815290600101906020018083116112eb57829003601f168201915b5050505050905086565b60006020828403121561132457600080fd5b5035919050565b6000815180845260005b8181101561135157602081850181015186830182015201611335565b506000602082860101526020601f19601f83011685010191505092915050565b6001600160a01b038716815260c0602082018190526000906113959083018861132b565b86604084015285606084015284608084015282810360a08401526113b9818561132b565b9998505050505050505050565b634e487b7160e01b600052604160045260246000fd5b600082601f8301126113ed57600080fd5b813567ffffffffffffffff80821115611408576114086113c6565b604051601f8301601f19908116603f01168101908282118183101715611430576114306113c6565b8160405283815286602085880101111561144957600080fd5b836020870160208301376000602085830101528094505050505092915050565b60008060006060848603121561147e57600080fd5b833567ffffffffffffffff8082111561149657600080fd5b6114a2878388016113dc565b94506020860135935060408601359150808211156114bf57600080fd5b506114cc868287016113dc565b9150509250925092565b80356001600160a01b03811681146114ed57600080fd5b919050565b60006020828403121561150457600080fd5b61150d826114d6565b9392505050565b60008060006060848603121561152957600080fd5b83359250611539602085016114d6565b9150604084013590509250925092565b6000806040838503121561155c57600080fd5b8235915061156c602084016114d6565b90509250929050565b6020808252825182820181905260009190848201906040850190845b818110156115af578351151583529284019291840191600101611591565b50909695505050505050565b600080604083850312156115ce57600080fd5b50508035926020909101359150565b60006020808301818452808551808352604092508286019150828160051b87010184880160005b8381101561166b57603f19898403018552815160808151855288820151818a8701526116328287018261132b565b915050878201518886015260608083015192508582038187015250611657818361132b565b968901969450505090860190600101611604565b509098975050505050505050565b60008060006060848603121561168e57600080fd5b505081359360208301359350604090920135919050565b600181811c908216806116b957607f821691505b6020821081036116d957634e487b7160e01b600052602260045260246000fd5b50919050565b634e487b7160e01b600052601160045260246000fd5b8082018082111561071b5761071b6116df565b601f82111561175257600081815260208120601f850160051c8101602086101561172f5750805b601f850160051c820191505b8181101561174e5782815560010161173b565b5050505b505050565b815167ffffffffffffffff811115611771576117716113c6565b6117858161177f84546116a5565b84611708565b602080601f8311600181146117ba57600084156117a25750858301515b600019600386901b1c1916600185901b17855561174e565b600085815260208120601f198616915b828110156117e9578886015182559484019460019091019084016117ca565b50858210156118075787850151600019600388901b60f8161c191681555b5050505050600190811b01905550565b84815260018060a01b0384166020820152826040820152608060608201526000611844608083018461132b565b9695505050505050565b60208082526026908201527f4f6e6c7920746865206f776e65722063616e20706572666f726d20746869732060408201526530b1ba34b7b760d11b606082015260800190565b634e487b7160e01b600052603260045260246000fd5b6000600182016118bc576118bc6116df565b5060010190565b808202811582820484141761071b5761071b6116df565b6000826118f757634e487b7160e01b600052601260045260246000fd5b50049056fea2646970667358221220880dc731c3783b545d70e3c73b8541ca8d878ea04c980e939d7fbab5af3c1bc764736f6c63430008110033",
  "linkReferences": {},
  "deployedLinkReferences": {}
}